:060000007581A002010061
:1001000000759850438E01438E0475D7D075D6FF85
:10011000438E10759A50438E0475D7D075D6FF4321
:100120008E1075C1377595007596FF75B10075B263
:10013000F07591007592FF7593FF75940075A0009E
:10014000C2B7C296C29775200075C1371203181244
:10015000033212034B12036412037E12039812033C
:10016000B212029C12031812033212034B120364E0
:1001700012037E1203981201891203B23098E5E54A
:1001800099C2981201AB02016475F600E5F675C1DB
:10019000370030E6F70022538E7F5389F043890100
:1001A000758AB3758CCEC28DD28C220000000000FF
:1001B000B44D030201C3B452030201FDB44703026C
:1001C000022A2275C13712031812033212034B128E
:1001D000036412037E12039812059D120189120313
:1001E000B27400F55CF55DF55EF55FF5603098D3AF
:1001F000E599C2981201AB0201C30201C3120318B0
:1002000012033212034B12036412037E120398127C
:1002100001891203B200003098E3E599C2981201F7
:10022000AB0201FD0000000201FD0075C1373098EE
:10023000F9E599C2981201ABB4AAEF12025DE53458
:10024000B499E71201891203B202022A0075C1377C
:100250003098F9E599C2981201ABB4AAEF00309832
:10026000FCE599C298B4BBE478507F1175C13700A2
:100270003098FCE599C298F608DFF4E560B4CC0F3D
:100280007534991204B27599531202F602029B75E5
:10029000340A1204B27599461202F6221204B212FE
:1002A00004B21204B21204B21204B21204B2222234
:1002B000538EBF53890F758B00758D4CC28FD28EB4
:1002C000227840756000D2AFD2AB75C137AE60BE48
:1002D0000211E59A30E0EAA69B759A5008B84EEDF7
:1002E0000202CDC2AFC2ABC28EC28F22E59A0030ED
:1002F000E1FA759A50220075C1373099F9C29922F6
:1003000012030422538E7F5389F0438901758A00BA
:10031000758C00C28DD28C2275C1372080FA0030D6
:1003200080FC120300002080FCC28C858C50858AE2
:10033000512275C1372081FA3081FD12030000205F
:1003400081FCC28C858C52858A532275C1372082EC
:10035000FA3082FD120300002082FCC28C858C548E
:10036000858A552275C1372083FA003083FC120339
:1003700000002083FCC28C858C56858A572275C16B
:10038000372084FA003084FC120300002084FCC271
:100390008C858C58858A592275C1372085FA0030A2
:1003A00085FC120300002085FCC28C858C5A858A4E
:1003B0005B22E5F55500F5F5E5BA4480F5BAE5F1BF
:1003C0005400F5F190FFF2740BF090FFF07435F0EB
:1003D00090FFF17460F090FF007401F090FF0174E1
:1003E00000F0055090FF02E550F090FF03E551F05A
:1003F00090FF047400F090FF107401F090FF1174EE
:1004000000F0055290FF12E552F090FF13E553F013
:1004100090FF147400F090FF207401F090FF21749D
:1004200000F0055490FF22E554F090FF23E555F0CD
:1004300090FF247400F090FF307401F090FF31744D
:1004400000F0055690FF32E556F090FF33E557F087
:1004500090FF347400F090FF407401F090FF4174FD
:1004600000F0055890FF42E558F090FF43E559F041
:1004700090FF447400F090FF507401F090FF5174AD
:1004800000F0055A90FF52E55AF090FF53E55BF0FB
:1004900090FF547400F0E5BA547FF5BAE5F544BF17
:1004A000F5F5220000000075C13775300700D53022
:1004B000FC22000075C13775305775310AD531FD02
:1004C000D530FA220075C137007530117531D075FD
:1004D0003218D532FDD531FAD530F722759941124F
:1004E00002F67599411202F67599421202F6759953
:1004F000421202F67599431202F67599431202F6FA
:100500007599311202F67599311202F67599311208
:1005100002F67599321202F67599321202F6759941
:10052000321202F67599331202F67599331202F6F9
:100530007599331202F67599341202F675993412D0
:1005400002F67599341202F67599351202F675990C
:10055000351202F67599351202F67599361202F6C1
:100560007599361202F67599361202F67599371298
:1005700002F67599371202F67599371202F67599D7
:10058000381202F67599381202F67599381202F689
:100590007599441202F67599441202F6227599AAC9
:1005A0001202F61205C57599BB1202F61205C5783E
:1005B00050791086991202F61205C508D9F5759979
:1005C000CC1202F6220075306B0000D530FB22758C
:1005D0009B431202EC0000000000759BAA1202EC83
:1005E000856C9B1202F6856D9B1202EC856E9B1248
:1005F00002EC856F9B1202EC759BDD1202EC22006F
:10060000000075C137C030C03175305775310AD51B
:0B06100031FDD530FAD031D03022008F
:00000001FF
